:100000001AC0000000000000000000000000000016
:1000100000000000000000000000000000000000E0
:1000200000000000000000000000000000000000D0
:100030000000000047C611241FBECFE5D4E0CDBFAD
:10004000DEBFE8E2FFE000E1A0E6B0E0E234F00766
:100050001CF425902D92FACFA0E8B1E002E0A0397F
:10006000B00714F41D92FBCFEFD601D0E4CF80E6A9
:1000700090E09F938F938CE690E09F938F93FDD0B9
:10008000F8948091800290918102A0918202B091B7
:10009000830278940F900F900F900F90EAE3F1E0B5
:1000A0000296A11DB11D21E0EA37F20708F04CC00D
:1000B0004485558566857785480F591F6A1F7B1FC4
:1000C00044875587668777877096EDCF4485558539
:1000D000668577858C859D85AE85BF8548175907D0
:1000E0006A077B0708F4EF01709681E0EA37F807AA
:1000F00068F34C855D856E857F85F89480918002DC
:1001000090918102A0918202B09183027894841B25
:10011000950BA60BB70BB7FDF0CFEA81FB818E8163
:100120009F8109959F838E834C855D856E857F8534
:1001300088859985AA85BB85840F951FA61FB71F43
:100140008C879D87AE87BF87CAE3D1E0FE01CDCF04
:10015000CF92DF92EF92FF920F931F93CF93DF9393
:10016000CAE3D1E005E910E08EE9E82E80E0F82E40
:100170009BEAC92E90E0D92E81E0CA37D80700F556
:1001800089818F9388818F931F930F9376D0EC8111
:10019000FD810F900F900F900F90309751F08E814E
:1001A0009F810995892B29F0FF92EF9266D00F90DD
:1001B0000F90DF92CF9261D060960F900F90DCCFBE
:1001C00080E090E0DF91CF911F910F91FF90EF9031
:1001D000DF90CF900895E0E0F0E0A0E4B0E01C9262
:1001E00083E381A786E88C9382E283A788E082A7D5
:1001F00080E090E0089584E08093530081E0809354
:100200005900789480E090E00895CF93DF93EC015B
:100210008A30910519F48DE090E0F7DF80912B0092
:1002200085FFFCCFC0932C00DF91CF910895CF9331
:10023000DF93EC01F9D5CE01DF91CF910895CF93F3
:10024000DF93AB01BC0180E891E070D3EC0180E862
:1002500091E0EAD5CE01DF91CF910895CF93DF935E
:10026000CDB7DEB7AE01475F5F4F6F8178858D8177
:100270009E815CD3DF91CF910895CF93DF93CDB76B
:10028000DEB7BE016B5F7F4FFB0181919191BF0192
:10029000D6DFDF91CF9108952F923F924F925F92D8
:1002A0006F927F928F929F92AF92BF92CF92DF9286
:1002B000EF92FF920F931F93CF93DF9300D000D064
:1002C000CDB7DEB79A01AB018C0190EA892E96E892
:1002D000992EAA24A394B12C66E0562E7DEC272EED
:1002E000EAE03E2EF5E04F2EF8010B5F1F4F203A5B
:1002F00066E8360761E04607510508F0ADC06901C0
:1003000044E0D694C7944A95E1F77FE0C722DD2404
:10031000632F77276F707727D901AB2FBB27A29563
:10032000AF70C601860F971F8A0F9B1F06E0F02E45
:10033000F89E8001F99E100D11242F703327200F95
:10034000311F0DEC029FC001039F900D1124AC01E1
:10035000452F55274695469546951AE0149FC001AE
:10036000159F900D1124281B390B205D208329E057
:100370002A9FC0012B9F900D1124C80ED91E25E085
:10038000269FC001279F900D11248C0D9D1D840F69
:10039000951F009719F4CF01019611C1089FA00184
:1003A000099F500D1124452F552746954695469592
:1003B000149F9001159F300D1124821B930B805DBB
:1003C0008183660F771F460F571F4115510529F48A
:1003D000109719F4CF010296F2C02DE0249FC001BE
:1003E000259F900D1124880F892F881F990B9195B7
:1003F0006AE0689F9001699F300D1124421B530BE6
:10040000405D42839D01220F331F220F331F820F55
:10041000931F009719F4CF010396D1C04DEC489F6C
:100420009001499F300D1124232F332726952695BF
:100430002695629FA001639F500D1124841B950B8C
:10044000805D8383CF012115310511F40496B7C077
:100450000596205D2483B3C0CA01B901A5019401AA
:1004600041D57B0184E0F694E7948A95E1F7D701C2
:10047000AF70BB27BA83A983E72FFF27EF70FF2751
:10048000DB01AB2FBB27A295AF70BC83AB83E980A8
:10049000FA80EE0EFF1EEA0EFB1E5E9C60015F9C62
:1004A000D00C1124DB01AF70BB27AC0DBD1D2A9E03
:1004B00070012B9EF00C11246701CD2CDD24C69415
:1004C000C694C694380165E0661A71083C9C7001B8
:1004D0003D9CF00C1124AE19BF0980E38A0FD301B3
:1004E0008C93A9E08B819C81A89FB001A99F700D7E
:1004F000112489819A81860F971F4E9EB0014F9ECD
:10050000700D1124860F971F7C01EC0CFD1C2E9C96
:10051000D0012F9CB00D11246D01CD2CDD24C6948B
:10052000C694C6943801B4E06B1A71083C9CC001B3
:100530003D9C900D1124B701681B790BCB01805DA8
:10054000D3018C93EE0FFF1FD601AE0FBF1FEDE05E
:10055000EA9FC001EB9F900D1124880F892F881FFF
:10056000990B9195F8013397389EB001399E700D23
:100570001124A61BB70BA05DA0836B817C81660F45
:10058000771F660F771F860F971F289EB001299E41
:10059000700D1124672F7727669566956695D801AB
:1005A0001297369EF001379EF00D11248E1B9F0B83
:1005B000805D8C93F8013197605D608395CE0F90DC
:1005C0000F900F900F90DF91CF911F910F91FF909F
:1005D000EF90DF90CF90BF90AF909F908F907F90E3
:1005E0006F905F904F903F902F9008953F924F9261
:1005F0005F926F927F928F929F92AF92BF92CF92B3
:10060000DF92EF92FF920F931F93CF93DF93CDB7BB
:10061000DEB7C554D1090FB6F894DEBF0FBECDBF0B
:100620005C014901C6FE0AC031E020E08AE088167C
:10063000910409F430E0432E522E02C0412C512C7B
:100640009C2D9072392EC4FE02C0E894C0F8C1FE01
:1006500019C077FF0BC070956095509541955F4F1D
:100660006F4F7F4F015011092DE20DC0C2FE04C033
:10067000015011092BE207C0C3FE04C0015011094B
:1006800020E201C020E04114510479F0A0E18A1673
:10069000910419F00150110908C0025011094115C7
:1006A00051056105710531F012C041155105610513
:1006B000710549F480E38983E1E0F0E02596FFAF1E
:1006C000EEAF259745C0FAE08F16910489F1340109
:1006D00031E0631A710880E18816910411F434E066
:1006E00001C033E0DE01119625961FAE1EAE2597A0
:1006F0002596EEADFFAD259731962596FFAFEEAF6F
:100700002597E42FF0E0E621F721E751FF4FE08144
:10071000E329ED93032E04C0769567955795479589
:100720000A94D2F7411551056105710509F710C00A
:10073000CE0101963C0126962FAF2697ADDD861996
:10074000970925969FAF8EAF259726962FAD2697B2
:1007500025964EAD5FAD25974E155F050CF4A701AC
:10076000041B150BC60181719927892B99F4F5019A
:10077000C80130E2019797FD02C03193FBCFF80129
:1007800017FF02C0E0E0F0E0AE0EBF1E01501109FD
:100790000E1B1F0B222329F0D5012C93F501319656
:1007A0005F01452899F080E3D5018C93B0E18B1669
:1007B000910421F0EFEFAE1ABE0A08C0832D8865C0
:1007C000D50111968C93F50132965F01C4FC17C0D8
:1007D000C0FC02C020E201C020E3F501C80101977E
:1007E00097FD02C02193FBCF980117FF02C020E0C4
:1007F00030E0A20EB31E01501109021B130BF501CC
:1008000080E34150510925962EAD3FAD2597421703
:10081000530714F08193F5CFAF01C901019797FDFC
:100820000CC021E030E02C0F3D1F280F391FD901EB
:100830002C91DA012D93AD01F1CF25966EAD7FADF0
:10084000259777FF02C060E070E06E0F7F1FFB010D
:10085000C80120E2019797FD02C02193FBCFC80198
:1008600017FF02C080E090E0860F971FCB5BDF4F41
:100870000FB6F894DEBF0FBECDBFDF91CF911F91B1
:100880000F91FF90EF90DF90CF90BF90AF909F902F
:100890008F907F906F905F904F903F900895CF9290
:1008A000DF92EF92FF920F931F93CF93DF936C0130
:1008B0007B01EA016115710521F48BEDE82E80E0E2
:1008C000F82EB901C70135D2AC0104FD0BC0F60109
:1008D00020E26F012197CE0101964817590714F4C1
:1008E0002193F7CFD601F701CF018E199F09841705
:1008F00095071CF481918D93F7CF9A0157FF02C0A1
:1009000020E030E0F601E20FF31F80E24C175D07B4
:100910001CF481932197FACFCF01DF91CF911F91E2
:100920000F91FF90EF90DF90CF9008952F923F921C
:100930005F926F927F928F929F92AF92BF92CF926F
:10094000DF92EF92FF920F931F93CF93DF934C01AF
:10095000EB0115E2512E00E2602E2AE0722E288172
:10096000222309F490C1253229F4FE01319600E0DA
:1009700010E008C0DC012C9334C12C3244F02D323D
:1009800061F40061EF0121912B32B9F70AC02032E6
:1009900051F0233251F40064F5CF203331F401607B
:1009A000F1CF0460EFCF0860EDCF30ED320F3A3079
:1009B000A8F4DE01E0E0F0E0ED016D9120ED260FFE
:1009C0002A3000F57E9E90017F9E300D1124F901A2
:1009D000E60FF11D67FDFA95F097EECF2A3271F41C
:1009E00021969A012E5F3F4FDA01ED91FC91F7FFBE
:1009F00008C0F195E195F109006103C0EFEFFFEF49
:100A000001C0A9012881DE012E3251F511962981FC
:100A100030ED320F3A30B0F4ED0120E030E0DE018D
:100A2000699170ED760F7A3000F5729E7001739EB9
:100A3000F00C11249701260F311D67FD3A952053C4
:100A40003109EDCF2A3279F4DE011296BA016E5FD8
:100A50007F4FEA0128813981AB0137FD04C005C011
:100A60002FEF3FEF02C020E030E06C91683641F09C
:100A7000762F7F7D7C3421F07A3511F0643791F444
:100A8000772767FD7095ED0121966C36710569F445
:100A90001196FC90BCE6EB2EFE1007C021966CE48C
:100AA00070E003C0ED016FEF7FEFA881AE3609F46F
:100AB00078C08CF4A33601F13CF4A53209F48FC060
:100AC000A83509F490C095C0A43609F490C0A936A1
:100AD00009F48DC08EC0A33749F134F4AF3609F460
:100AE00098C0A03771F185C0A53709F48EC0A8372A
:100AF00009F07FC0006277C004FD08C0DC01CD01B1
:100B000031971E161F0614F46D92F9CF9A012E5FCD
:100B10003F4FDA014C91DC014D93CD0131971E1608
:100B20001F0614F46D92F9CFA901ABC07A01B2E0AF
:100B3000EB0EF11CDA016D917C91AF01B0DEA701E3
:100B4000A0C05A01B2E0AB0EB11CDA014D915C912C
:100B50004115510529F4AF0162EE70E0A0DE15C029
:100B60006801EF3FBFEFFB0719F06894C5F804C0B8
:100B7000E1E2CE2AE4E0F0E0662757FD6095762FAB
:100B800079018F0120E130E031DDFE013196EF0186
:100B900021972191322F3F7D31543A3108F089C09D
:100BA000F6CFFA0132969C0128193909DA016C3620
:100BB000710571F40D911C91A901662757FD60958F
:100BC000762FD8014D935D936D937C93139705C059
:100BD0004D915C91DA012D933C93AF0152C0FC0121
:100BE000A08301964EC0A0E12A2E312C15C00260D0
:100BF0000CC0DC015C922881222321F011962C93F9
:100C000002963FC0019621973CC0BAE02B2E312CB2
:100C100003C0A8E02A2E312C6C36710579F07B01D7
:100C2000E894E5F8BAE5EB16F10429F45A0164E01A
:100C3000A60EB11C07C06437710551F45A01B4E027
:100C4000AB0EB11CDA014D915D916D917C9113C099
:100C5000DA0112965D017801B2E0EB22FF24DA019D
:100C60004D915C91EF2819F460E070E004C06627B4
:100C700057FD6095762F680179018F019101B6DCEF
:100C8000A50121966CCEEC01188288199909DF9193
:100C9000CF911F910F91FF90EF90DF90CF90BF9079
:100CA000AF909F908F907F906F905F903F902F902C
:100CB0000895332727FD3095205331092A30310517
:100CC000F8F665CF1F921FB61F9211248F939F9342
:100CD000AF93BF938091800290918102A091820294
:100CE000B09183020196A11DB11D80938002909363
:100CF0008102A0938202B0938302BF91AF919F9132
:100D00008F911F901FBE1F901895FC01DB012D9144
:100D1000BD0121932111FACF08959C01F9012F5FA4
:100D20003F4F40814111FACF9F01281B390BC90168
:100D300008959C01680F791FF9012617370729F4D8
:100D40009F01281B390BC90108952F5F3F4F408138
:100D50004111F2CFF5CFCF93DF939C01262B372B98
:100D600020FD1BC0FB01DC019A012230310538F067
:100D7000C191D191CD93DD9322503109F6CF9A01E3
:100D800036952795F901EE0FFF1F4E1B5F0BDC0117
:100D9000AE0FBF1F6E0F7F1F01C0DC01FB014A0FAA
:100DA0005B1FA417B50719F021912D93FACFDF919E
:100DB000CF910895CF92DF92EF92FF920F931F93FE
:100DC00080FD23C08B011127222717FD2095322F8C
:100DD000CC24D02EE12EF22E0C291D292E293F29BC
:100DE000DC01FA01E230F10520F00D931D933297FA
:100DF000F9CFFA01F695E7959F01220F331F421BA9
:100E0000530BF901E80FF91F01C0FC014E0F5F1FE2
:100E1000E417F50711F06193FBCF1F910F91FF903D
:100E2000EF90DF90CF900895CF93DF93EC018991FD
:100E3000882329F0992787FD9095E7D9F8CF80E09E
:100E400090E0DF91CF910895AF92BF92CF92DF9261
:100E5000EF92FF920F931F93CF93DF93CCE2D1E0F9
:100E6000FE0181E0CE32D80730F422960190F08165
:100E7000E02D0995F5CFC8E2D1E08AE0C82E81E0E7
:100E8000D82E9BE1A92E91E0B92E8E0191E0CC32B3
:100E9000D907D8F42296D801ED91FC9109957C01EF
:100EA000009799F31F930F93DF92CF92E6D9FF92A9
:100EB000EF92BF92AF92E1D98DB79EB708960FB669
:100EC000F8949EBF0FBE8DBFE0CF80E090E0DF9131
:100ED000CF911F910F91FF90EF90DF90CF90BF9037
:100EE000AF900895A1E21A2EAA1BBB1BFD010DC0F5
:100EF000AA1FBB1FEE1FFF1FA217B307E407F507CA
:100F000020F0A21BB30BE40BF50B661F771F881FA5
:100F1000991F1A9469F760957095809590959B013B
:080F2000AC01BD01CF010895F1
:100F280041707220323920323031350048656C6C9E
:100F38006F2C20426174686F732069732073706529
:100F4800616B696E6720286275696C74206F6E200A
:100F58002573290A005461736B3A202573003A20DF
:100F6800696E6974206572726F72000A006D696E2D
:100F7800757465006D696E757465210A003130738A
:100F880065636F6E64000A007365636F6E64005377
:100F98000071756172746572002E003C4E554C4CA0
:100FA8003E00286E756C6C2900303132333435368A
:100FB8003738394142434445463031323334353687
:100FC80037383961626364656600696E69746361A4
:100FD8006C6C2061742025703A20006572726F7203
:100FE8002025690A00000000FB00A800EB000000B3
:100FF80000000000000000000000AD001701000024
:10100800B4003039000003000000BD0017010000E3
:10101800C6008809000002000000C800170100008F
:10102800CF00F400000001000000D100170100000B
:0A103800D9003D0000000000000098
:0400000300000036C3
:00000001FF
